{
  "contractName": "Exchain",
  "abi": [
    {
      "constant": false,
      "inputs": [],
      "name": "renounceOwnership",
      "outputs": [],
      "payable": false,
      "stateMutability": "nonpayable",
      "type": "function"
    },
    {
      "constant": true,
      "inputs": [],
      "name": "owner",
      "outputs": [
        {
          "name": "",
          "type": "address"
        }
      ],
      "payable": false,
      "stateMutability": "view",
      "type": "function"
    },
    {
      "constant": true,
      "inputs": [],
      "name": "isOwner",
      "outputs": [
        {
          "name": "",
          "type": "bool"
        }
      ],
      "payable": false,
      "stateMutability": "view",
      "type": "function"
    },
    {
      "constant": false,
      "inputs": [
        {
          "name": "newOwner",
          "type": "address"
        }
      ],
      "name": "transferOwnership",
      "outputs": [],
      "payable": false,
      "stateMutability": "nonpayable",
      "type": "function"
    },
    {
      "inputs": [],
      "payable": false,
      "stateMutability": "nonpayable",
      "type": "constructor"
    },
    {
      "anonymous": false,
      "inputs": [
        {
          "indexed": false,
          "name": "name",
          "type": "string"
        },
        {
          "indexed": false,
          "name": "owner",
          "type": "address"
        },
        {
          "indexed": false,
          "name": "attemptedLocker",
          "type": "address"
        }
      ],
      "name": "DatabaseIsLocked",
      "type": "event"
    },
    {
      "anonymous": false,
      "inputs": [
        {
          "indexed": false,
          "name": "name",
          "type": "string"
        },
        {
          "indexed": false,
          "name": "owner",
          "type": "address"
        },
        {
          "indexed": false,
          "name": "attemptedUnlocker",
          "type": "address"
        }
      ],
      "name": "DatabaseIsUnlocked",
      "type": "event"
    },
    {
      "anonymous": false,
      "inputs": [
        {
          "indexed": false,
          "name": "name",
          "type": "string"
        },
        {
          "indexed": false,
          "name": "owner",
          "type": "address"
        },
        {
          "indexed": false,
          "name": "attemptedLocker",
          "type": "address"
        }
      ],
      "name": "DatabaseIsRLocked",
      "type": "event"
    },
    {
      "anonymous": false,
      "inputs": [
        {
          "indexed": false,
          "name": "name",
          "type": "string"
        },
        {
          "indexed": false,
          "name": "owner",
          "type": "address"
        },
        {
          "indexed": false,
          "name": "attemptedUnlocker",
          "type": "address"
        }
      ],
      "name": "DatabaseIsRUnlocked",
      "type": "event"
    },
    {
      "anonymous": false,
      "inputs": [
        {
          "indexed": false,
          "name": "index",
          "type": "uint256"
        },
        {
          "indexed": false,
          "name": "name",
          "type": "string"
        },
        {
          "indexed": false,
          "name": "uid",
          "type": "uint256"
        },
        {
          "indexed": false,
          "name": "owner",
          "type": "address"
        }
      ],
      "name": "NewDatabaseCreated",
      "type": "event"
    },
    {
      "anonymous": false,
      "inputs": [
        {
          "indexed": false,
          "name": "index",
          "type": "uint256"
        },
        {
          "indexed": false,
          "name": "name",
          "type": "string"
        },
        {
          "indexed": false,
          "name": "uid",
          "type": "uint256"
        },
        {
          "indexed": false,
          "name": "owner",
          "type": "address"
        }
      ],
      "name": "DatabaseDeleted",
      "type": "event"
    },
    {
      "anonymous": false,
      "inputs": [
        {
          "indexed": false,
          "name": "index",
          "type": "uint256"
        },
        {
          "indexed": false,
          "name": "name",
          "type": "string"
        },
        {
          "indexed": false,
          "name": "owner",
          "type": "address"
        }
      ],
      "name": "ErrorFailureToPackEmptySlot",
      "type": "event"
    },
    {
      "anonymous": false,
      "inputs": [
        {
          "indexed": false,
          "name": "name",
          "type": "string"
        },
        {
          "indexed": false,
          "name": "owner",
          "type": "address"
        },
        {
          "indexed": false,
          "name": "reader",
          "type": "address"
        },
        {
          "indexed": false,
          "name": "data",
          "type": "string"
        }
      ],
      "name": "DatabaseRead",
      "type": "event"
    },
    {
      "anonymous": false,
      "inputs": [
        {
          "indexed": false,
          "name": "index",
          "type": "uint256"
        },
        {
          "indexed": false,
          "name": "name",
          "type": "string"
        },
        {
          "indexed": false,
          "name": "nextTimeToUpdate",
          "type": "uint256"
        },
        {
          "indexed": false,
          "name": "newData",
          "type": "string"
        }
      ],
      "name": "DatabaseUpdated",
      "type": "event"
    },
    {
      "anonymous": false,
      "inputs": [
        {
          "indexed": false,
          "name": "index",
          "type": "uint256"
        },
        {
          "indexed": false,
          "name": "name",
          "type": "string"
        },
        {
          "indexed": false,
          "name": "nextTimeToUpdate",
          "type": "uint256"
        }
      ],
      "name": "DatabaseInCooldown",
      "type": "event"
    },
    {
      "anonymous": false,
      "inputs": [
        {
          "indexed": true,
          "name": "previousOwner",
          "type": "address"
        },
        {
          "indexed": true,
          "name": "newOwner",
          "type": "address"
        }
      ],
      "name": "OwnershipTransferred",
      "type": "event"
    },
    {
      "constant": false,
      "inputs": [
        {
          "name": "_name",
          "type": "string"
        },
        {
          "name": "_setOwner",
          "type": "address"
        }
      ],
      "name": "createDB",
      "outputs": [
        {
          "name": "",
          "type": "uint256"
        }
      ],
      "payable": false,
      "stateMutability": "nonpayable",
      "type": "function"
    },
    {
      "constant": false,
      "inputs": [
        {
          "name": "_uid",
          "type": "uint256"
        }
      ],
      "name": "deleteDB",
      "outputs": [],
      "payable": false,
      "stateMutability": "nonpayable",
      "type": "function"
    },
    {
      "constant": false,
      "inputs": [
        {
          "name": "_data",
          "type": "string"
        }
      ],
      "name": "writeDB",
      "outputs": [],
      "payable": false,
      "stateMutability": "nonpayable",
      "type": "function"
    },
    {
      "constant": false,
      "inputs": [
        {
          "name": "_uid",
          "type": "uint256"
        }
      ],
      "name": "readDB",
      "outputs": [
        {
          "name": "",
          "type": "string"
        }
      ],
      "payable": false,
      "stateMutability": "nonpayable",
      "type": "function"
    }
  ],
  "bytecode": "0x6080604052600a6005553480156200001657600080fd5b50336000806101000a81548173ffffffffffffffffffffffffffffffffffffffff021916908373ffffffffffffffffffffffffffffffffffffffff1602179055506000809054906101000a900473ffffffffffffffffffffffffffffffffffffffff1673ffffffffffffffffffffffffffffffffffffffff16600073ffffffffffffffffffffffffffffffffffffffff167f8be0079c531659141344cd1fd0a4f28419497f9722a3daafe3b4186f6b6457e060405160405180910390a360006004819055506006610120604051908101604052806040805190810160405280600581526020017f454d5054590000000000000000000000000000000000000000000000000000008152508152602001600081526020016040805190810160405280600a81526020017f5a45524f20494e444558000000000000000000000000000000000000000000008152508152602001600073ffffffffffffffffffffffffffffffffffffffff16815260200160008152602001600081526020016001151581526020016001151581526020016000815250908060018154018082558091505090600182039060005260206000209060080201600090919290919091506000820151816000019080519060200190620001f2929190620002cb565b506020820151816001015560408201518160020190805190602001906200021b929190620002cb565b5060608201518160030160006101000a81548173ffffffffffffffffffffffffffffffffffffffff021916908373ffffffffffffffffffffffffffffffffffffffff1602179055506080820151816004015560a0820151816005015560c08201518160060160006101000a81548160ff02191690831515021790555060e08201518160060160016101000a81548160ff02191690831515021790555061010082015181600701555050506200037a565b828054600181600116156101000203166002900490600052602060002090601f016020900481019282601f106200030e57805160ff19168380011785556200033f565b828001600101855582156200033f579182015b828111156200033e57825182559160200191906001019062000321565b5b5090506200034e919062000352565b5090565b6200037791905b808211156200037357600081600090555060010162000359565b5090565b90565b612c4d806200038a6000396000f3fe60806040526004361061008e576000357c0100000000000000000000000000000000000000000000000000000000900463ffffffff1680633035869f14610093578063366e382314610147578063715018a61461020f57806375badbe3146102265780638da5cb5b146103225780638f32d59b14610379578063e91bbef6146103a8578063f2fde38b146103e3575b600080fd5b34801561009f57600080fd5b506100cc600480360360208110156100b657600080fd5b8101908080359060200190929190505050610434565b6040518080602001828103825283818151815260200191508051906020019080838360005b8381101561010c5780820151818401526020810190506100f1565b50505050905090810190601f1680156101395780820380516001836020036101000a031916815260200191505b509250505060405180910390f35b34801561015357600080fd5b5061020d6004803603602081101561016a57600080fd5b810190808035906020019064010000000081111561018757600080fd5b82018360208201111561019957600080fd5b803590602001918460018302840111640100000000831117156101bb57600080fd5b91908080601f016020809104026020016040519081016040528093929190818152602001838380828437600081840152601f19601f820116905080830192505050505050509192919290505050610818565b005b34801561021b57600080fd5b50610224610bd2565b005b34801561023257600080fd5b5061030c6004803603604081101561024957600080fd5b810190808035906020019064010000000081111561026657600080fd5b82018360208201111561027857600080fd5b8035906020019184600183028401116401000000008311171561029a57600080fd5b91908080601f016020809104026020016040519081016040528093929190818152602001838380828437600081840152601f19601f820116905080830192505050505050509192919290803573ffffffffffffffffffffffffffffffffffffffff169060200190929190505050610ca4565b6040518082815260200191505060405180910390f35b34801561032e57600080fd5b50610337610fd1565b604051808273ffffffffffffffffffffffffffffffffffffffff1673ffffffffffffffffffffffffffffffffffffffff16815260200191505060405180910390f35b34801561038557600080fd5b5061038e610ffa565b604051808215151515815260200191505060405180910390f35b3480156103b457600080fd5b506103e1600480360360208110156103cb57600080fd5b8101908080359060200190929190505050611051565b005b3480156103ef57600080fd5b506104326004803603602081101561040657600080fd5b81019080803573ffffffffffffffffffffffffffffffffffffffff169060200190929190505050611472565b005b60606001600260003373ffffffffffffffffffffffffffffffffffffffff1673ffffffffffffffffffffffffffffffffffffffff16815260200190815260200160002054148061048f57506001151561048b610ffa565b1515145b1515610503576040517f08c379a000000000000000000000000000000000000000000000000000000000815260040180806020018281038252601f8152602001807f43616c6c6572206973206e6f7420612070617274206f66204578636861696e0081525060200191505060405180910390fd5b600060036000848152602001908152602001600020549050600060068281548110151561052c57fe5b9060005260206000209060080201905061054581611491565b60008160070154141561055c5761055b8161177e565b5b806007016000815480929190600101919050555061057981611a6b565b6060816000018054600181600116156101000203166002900480601f0160208091040260200160405190810160405280929190818152602001828054600181600116156101000203166002900480156106135780601f106105e857610100808354040283529160200191610613565b820191906000526020600020905b8154815290600101906020018083116105f657829003601f168201915b5050505050905061062382611491565b81600701600081548092919060019003919050555060008260070154141561064f5761064e82611d7d565b5b61065882611a6b565b7f1931ba9fb4438adf44560aec8ce485bbb815cb8462f2d3c4fc9481c42b021a12826002018360030160009054906101000a900473ffffffffffffffffffffffffffffffffffffffff16338460405180806020018573ffffffffffffffffffffffffffffffffffffffff1673ffffffffffffffffffffffffffffffffffffffff1681526020018473ffffffffffffffffffffffffffffffffffffffff1673ffffffffffffffffffffffffffffffffffffffff168152602001806020018381038352878181546001816001161561010002031660029004815260200191508054600181600116156101000203166002900480156107955780601f1061076a57610100808354040283529160200191610795565b820191906000526020600020905b81548152906001019060200180831161077857829003601f168201915b5050838103825284818151815260200191508051906020019080838360005b838110156107cf5780820151818401526020810190506107b4565b50505050905090810190601f1680156107fc5780820380516001836020036101000a031916815260200191505b50965050505050505060405180910390a1809350505050919050565b6001600260003373ffffffffffffffffffffffffffffffffffffffff1673ffffffffffffffffffffffffffffffffffffffff168152602001908152602001600020541415156108cf576040517f08c379a00000000000000000000000000000000000000000000000000000000081526004018080602001828103825260188152602001807f43616c6c657220646f6573206e6f74206f776e2061206462000000000000000081525060200191505060405180910390fd5b6000600160003373ffffffffffffffffffffffffffffffffffffffff1673ffffffffffffffffffffffffffffffffffffffff168152602001908152602001600020549050600060068281548110151561092457fe5b90600052602060002090600802019050600061093f82612069565b9050600015158115151415610a1f577f4f799691483f615639d8f935747817a428ae8ab30956aaf857cc0a29a65bf109838360020184600501546040518084815260200180602001838152602001828103825284818154600181600116156101000203166002900481526020019150805460018160011615610100020316600290048015610a0e5780601f106109e357610100808354040283529160200191610a0e565b820191906000526020600020905b8154815290600101906020018083116109f157829003601f168201915b505094505050505060405180910390a15b60011515811515141515610a3257600080fd5b610a3b8261177e565b83826000019080519060200190610a53929190612ab4565b50428260040181905550610a668261207a565b610a6f82611d7d565b7f2c74eba42193f8146d801a7103beb6a9056b54ac6c9dd15adb735712dfc4a89d8383600201846005015485600001604051808581526020018060200184815260200180602001838103835286818154600181600116156101000203166002900481526020019150805460018160011615610100020316600290048015610b375780601f10610b0c57610100808354040283529160200191610b37565b820191906000526020600020905b815481529060010190602001808311610b1a57829003601f168201915b5050838103825284818154600181600116156101000203166002900481526020019150805460018160011615610100020316600290048015610bba5780601f10610b8f57610100808354040283529160200191610bba565b820191906000526020600020905b815481529060010190602001808311610b9d57829003601f168201915b5050965050505050505060405180910390a150505050565b610bda610ffa565b1515610be557600080fd5b600073ffffffffffffffffffffffffffffffffffffffff166000809054906101000a900473ffffffffffffffffffffffffffffffffffffffff1673ffffffffffffffffffffffffffffffffffffffff167f8be0079c531659141344cd1fd0a4f28419497f9722a3daafe3b4186f6b6457e060405160405180910390a360008060006101000a81548173ffffffffffffffffffffffffffffffffffffffff021916908373ffffffffffffffffffffffffffffffffffffffff160217905550565b6000610cae610ffa565b1515610cb957600080fd5b6000600260008473ffffffffffffffffffffffffffffffffffffffff1673ffffffffffffffffffffffffffffffffffffffff16815260200190815260200160002054141515610d96576040517f08c379a00000000000000000000000000000000000000000000000000000000081526004018080602001828103825260298152602001807f416464726573732063616e6e6f74206f776e206d6f7265207468616e206f6e6581526020017f206461746162617365000000000000000000000000000000000000000000000081525060400191505060405180910390fd5b3373ffffffffffffffffffffffffffffffffffffffff168273ffffffffffffffffffffffffffffffffffffffff1614151515610e60576040517f08c379a00000000000000000000000000000000000000000000000000000000081526004018080602001828103825260318152602001807f546865206865616420656e74697479206d6179206e6f7420637265617465206981526020017f7473206f776e206120646174616261736500000000000000000000000000000081525060400191505060405180910390fd5b600073ffffffffffffffffffffffffffffffffffffffff168273ffffffffffffffffffffffffffffffffffffffff1614151515610f05576040517f08c379a000000000000000000000000000000000000000000000000000000000815260040180806020018281038252601f8152602001807f4164647265737320302063616e6e6f74206f776e20612064617461626173650081525060200191505060405180910390fd5b60001515610f128461214b565b1515141515610faf576040517f08c379a00000000000000000000000000000000000000000000000000000000081526004018080602001828103825260238152602001807f4e6f206475706c6963617465206e616d6573206163726f73732064617461626181526020017f736573000000000000000000000000000000000000000000000000000000000081525060400191505060405180910390fd5b6000610fba84612299565b9050610fc781858561231f565b8091505092915050565b60008060009054906101000a900473ffffffffffffffffffffffffffffffffffffffff16905090565b60008060009054906101000a900473ffffffffffffffffffffffffffffffffffffffff1673ffffffffffffffffffffffffffffffffffffffff163373ffffffffffffffffffffffffffffffffffffffff1614905090565b611059610ffa565b151561106457600080fd5b600060036000838152602001908152602001600020549050600060068281548110151561108d57fe5b906000526020600020906008020190503373ffffffffffffffffffffffffffffffffffffffff168160030160009054906101000a900473ffffffffffffffffffffffffffffffffffffffff1673ffffffffffffffffffffffffffffffffffffffff161415151561118b576040517f08c379a00000000000000000000000000000000000000000000000000000000081526004018080602001828103825260318152602001807f546865206865616420656e74697479206d6179206e6f742064656c657465206981526020017f7473206f776e206120646174616261736500000000000000000000000000000081525060400191505060405180910390fd5b6111948161177e565b6000600260008360030160009054906101000a900473ffffffffffffffffffffffffffffffffffffffff1673ffffffffffffffffffffffffffffffffffffffff1673ffffffffffffffffffffffffffffffffffffffff168152602001908152602001600020819055506000600160008360030160009054906101000a900473ffffffffffffffffffffffffffffffffffffffff1673ffffffffffffffffffffffffffffffffffffffff1673ffffffffffffffffffffffffffffffffffffffff168152602001908152602001600020819055506000600360008360010154815260200190815260200160002081905550600460008154809291906001900391905055507fcfb0872812a4c85b40894795e65cff0857986e76fc5c2af5b675e6bae938b78f828260020183600101548460030160009054906101000a900473ffffffffffffffffffffffffffffffffffffffff1660405180858152602001806020018481526020018373ffffffffffffffffffffffffffffffffffffffff1673ffffffffffffffffffffffffffffffffffffffff1681526020018281038252858181546001816001161561010002031660029004815260200191508054600181600116156101000203166002900480156113ad5780601f10611382576101008083540402835291602001916113ad565b820191906000526020600020905b81548152906001019060200180831161139057829003601f168201915b50509550505050505060405180910390a16006828154811015156113cd57fe5b9060005260206000209060080201600080820160006113ec9190612b34565b60018201600090556002820160006114049190612b34565b6003820160006101000a81549073ffffffffffffffffffffffffffffffffffffffff0219169055600482016000905560058201600090556006820160006101000a81549060ff02191690556006820160016101000a81549060ff021916905560078201600090555050505050565b61147a610ffa565b151561148557600080fd5b61148e816124c7565b50565b6001600260003373ffffffffffffffffffffffffffffffffffffffff1673ffffffffffffffffffffffffffffffffffffffff1681526020019081526020016000205414806114ea5750600115156114e6610ffa565b1515145b151561155e576040517f08c379a000000000000000000000000000000000000000000000000000000000815260040180806020018281038252601f8152602001807f43616c6c6572206973206e6f7420612070617274206f66204578636861696e0081525060200191505060405180910390fd5b600115158160060160019054906101000a900460ff16151514151561159f5760018160060160016101000a81548160ff02191690831515021790555061177b565b7fa902965835b7204e9d29a6b4ed58ea5a42fe7b3ac627389f60abf35311834495816002018260030160009054906101000a900473ffffffffffffffffffffffffffffffffffffffff163360405180806020018473ffffffffffffffffffffffffffffffffffffffff1673ffffffffffffffffffffffffffffffffffffffff1681526020018373ffffffffffffffffffffffffffffffffffffffff1673ffffffffffffffffffffffffffffffffffffffff1681526020018281038252858181546001816001161561010002031660029004815260200191508054600181600116156101000203166002900480156116d75780601f106116ac576101008083540402835291602001916116d7565b820191906000526020600020905b8154815290600101906020018083116116ba57829003601f168201915b505094505050505060405180910390a16040517f08c379a00000000000000000000000000000000000000000000000000000000081526004018080602001828103825260338152602001807f44617461626173652069732063757272656e746c792072656164206c6f636b6581526020017f6420627920616e6f74686572207265616465720000000000000000000000000081525060400191505060405180910390fd5b50565b6001600260003373ffffffffffffffffffffffffffffffffffffffff1673ffffffffffffffffffffffffffffffffffffffff1681526020019081526020016000205414806117d75750600115156117d3610ffa565b1515145b151561184b576040517f08c379a000000000000000000000000000000000000000000000000000000000815260040180806020018281038252601f8152602001807f43616c6c6572206973206e6f7420612070617274206f66204578636861696e0081525060200191505060405180910390fd5b600115158160060160009054906101000a900460ff16151514151561188c5760018160060160006101000a81548160ff021916908315150217905550611a68565b7f8453b88c7e4b5296a96ea3155ecd74505e704494d63269510715a75da2345147816002018260030160009054906101000a900473ffffffffffffffffffffffffffffffffffffffff163360405180806020018473ffffffffffffffffffffffffffffffffffffffff1673ffffffffffffffffffffffffffffffffffffffff1681526020018373ffffffffffffffffffffffffffffffffffffffff1673ffffffffffffffffffffffffffffffffffffffff1681526020018281038252858181546001816001161561010002031660029004815260200191508054600181600116156101000203166002900480156119c45780601f10611999576101008083540402835291602001916119c4565b820191906000526020600020905b8154815290600101906020018083116119a757829003601f168201915b505094505050505060405180910390a16040517f08c379a000000000000000000000000000000000000000000000000000000000815260040180806020018281038252602e8152602001807f44617461626173652069732063757272656e746c79206c6f636b65642062792081526020017f616e6f7468657220656e7469747900000000000000000000000000000000000081525060400191505060405180910390fd5b50565b6001600260003373ffffffffffffffffffffffffffffffffffffffff1673ffffffffffffffffffffffffffffffffffffffff168152602001908152602001600020541480611ac4575060011515611ac0610ffa565b1515145b1515611b38576040517f08c379a000000000000000000000000000000000000000000000000000000000815260040180806020018281038252601f8152602001807f43616c6c6572206973206e6f7420612070617274206f66204578636861696e0081525060200191505060405180910390fd5b600115158160060160019054906101000a900460ff1615151415611b785760008160060160016101000a81548160ff021916908315150217905550611d7a565b7f9759cff5cbafb0006f712ab01959a0dc6327742c69f5e0cc3eb4834d0c31d16b816002018260030160009054906101000a900473ffffffffffffffffffffffffffffffffffffffff163360405180806020018473ffffffffffffffffffffffffffffffffffffffff1673ffffffffffffffffffffffffffffffffffffffff1681526020018373ffffffffffffffffffffffffffffffffffffffff1673ffffffffffffffffffffffffffffffffffffffff168152602001828103825285818154600181600116156101000203166002900481526020019150805460018160011615610100020316600290048015611cb05780601f10611c8557610100808354040283529160200191611cb0565b820191906000526020600020905b815481529060010190602001808311611c9357829003601f168201915b505094505050505060405180910390a16040517f08c379a00000000000000000000000000000000000000000000000000000000081526004018080602001828103825260428152602001807f446174616261736520776173206e6f742072656164206c6f636b656420616e6481526020017f2077617320617474656d7074656420746f206265207265616420756e6c6f636b81526020017f656400000000000000000000000000000000000000000000000000000000000081525060600191505060405180910390fd5b50565b6001600260003373ffffffffffffffffffffffffffffffffffffffff1673ffffffffffffffffffffffffffffffffffffffff168152602001908152602001600020541480611dd6575060011515611dd2610ffa565b1515145b1515611e4a576040517f08c379a000000000000000000000000000000000000000000000000000000000815260040180806020018281038252601f8152602001807f43616c6c6572206973206e6f7420612070617274206f66204578636861696e0081525060200191505060405180910390fd5b600115158160060160009054906101000a900460ff1615151415611e8a5760008160060160006101000a81548160ff021916908315150217905550612066565b7fe7369150c85f06c68dcd5356bd26dbff6679ea18751d92ed1cb80e00b79a2eb2816002018260030160009054906101000a900473ffffffffffffffffffffffffffffffffffffffff163360405180806020018473ffffffffffffffffffffffffffffffffffffffff1673ffffffffffffffffffffffffffffffffffffffff1681526020018373ffffffffffffffffffffffffffffffffffffffff1673ffffffffffffffffffffffffffffffffffffffff168152602001828103825285818154600181600116156101000203166002900481526020019150805460018160011615610100020316600290048015611fc25780601f10611f9757610100808354040283529160200191611fc2565b820191906000526020600020905b815481529060010190602001808311611fa557829003601f168201915b505094505050505060405180910390a16040517f08c379a00000000000000000000000000000000000000000000000000000000081526004018080602001828103825260388152602001807f446174616261736520776173206e6f74206c6f636b656420616e64207761732081526020017f617474656d7074656420746f20626520756e6c6f636b6564000000000000000081525060400191505060405180910390fd5b50565b600042826005015411159050919050565b6001600260003373ffffffffffffffffffffffffffffffffffffffff1673ffffffffffffffffffffffffffffffffffffffff16815260200190815260200160002054141515612131576040517f08c379a00000000000000000000000000000000000000000000000000000000081526004018080602001828103825260188152602001807f43616c6c657220646f6573206e6f74206f776e2061206462000000000000000081525060200191505060405180910390fd5b60055481600401540163ffffffff16816005018190555050565b60008060009050600190505b60068054905081101561228e57826040516020018082805190602001908083835b60208310151561219d5780518252602082019150602081019050602083039250612178565b6001836020036101000a038019825116818451168082178552505050505050905001915050604051602081830303815290604052805190602001206006828154811015156121e757fe5b906000526020600020906008020160020160405160200180828054600181600116156101000203166002900480156122565780601f10612234576101008083540402835291820191612256565b820191906000526020600020905b815481529060010190602001808311612242575b5050915050604051602081830303815290604052805190602001201415612281576001915050612294565b8080600101915050612157565b60009150505b919050565b600080826040516020018082805190602001908083835b6020831015156122d557805182526020820191506020810190506020830392506122b0565b6001836020036101000a0380198251168184511680821785525050505050509050019150506040516020818303038152906040528051906020012060019004905080915050919050565b600061232c8484846125c1565b905080600160008473ffffffffffffffffffffffffffffffffffffffff1673ffffffffffffffffffffffffffffffffffffffff168152602001908152602001600020819055506001600260008473ffffffffffffffffffffffffffffffffffffffff1673ffffffffffffffffffffffffffffffffffffffff168152602001908152602001600020819055508060036000868152602001908152602001600020819055506004600081548092919060010191905055507f29b4cd484e97ec0ee4dd89084d45ae306e22f9976e20ec3d792d6807073db2e58184868560405180858152602001806020018481526020018373ffffffffffffffffffffffffffffffffffffffff1673ffffffffffffffffffffffffffffffffffffffff168152602001828103825285818151815260200191508051906020019080838360005b83811015612484578082015181840152602081019050612469565b50505050905090810190601f1680156124b15780820380516001836020036101000a031916815260200191505b509550505050505060405180910390a150505050565b600073ffffffffffffffffffffffffffffffffffffffff168173ffffffffffffffffffffffffffffffffffffffff161415151561250357600080fd5b8073ffffffffffffffffffffffffffffffffffffffff166000809054906101000a900473ffffffffffffffffffffffffffffffffffffffff1673ffffffffffffffffffffffffffffffffffffffff167f8be0079c531659141344cd1fd0a4f28419497f9722a3daafe3b4186f6b6457e060405160405180910390a3806000806101000a81548173ffffffffffffffffffffffffffffffffffffffff021916908373ffffffffffffffffffffffffffffffffffffffff16021790555050565b6000806000905060016006805490500360045410156125f5576125e261298b565b9050600081141515156125f457600080fd5b5b600042905060006005548263ffffffff1601905060008314156127d45760016006610120604051908101604052806040805190810160405280600581526020017f454d50545900000000000000000000000000000000000000000000000000000081525081526020018a81526020018981526020018873ffffffffffffffffffffffffffffffffffffffff1681526020018563ffffffff1681526020018463ffffffff16815260200160001515815260200160001515815260200160008152509080600181540180825580915050906001820390600052602060002090600802016000909192909190915060008201518160000190805190602001906126fc929190612b7c565b50602082015181600101556040820151816002019080519060200190612723929190612b7c565b5060608201518160030160006101000a81548173ffffffffffffffffffffffffffffffffffffffff021916908373ffffffffffffffffffffffffffffffffffffffff1602179055506080820151816004015560a0820151816005015560c08201518160060160006101000a81548160ff02191690831515021790555060e08201518160060160016101000a81548160ff0219169083151502179055506101008201518160070155505003925061297e565b610120604051908101604052806040805190810160405280600581526020017f454d50545900000000000000000000000000000000000000000000000000000081525081526020018881526020018781526020018673ffffffffffffffffffffffffffffffffffffffff1681526020018363ffffffff1681526020018263ffffffff168152602001600015158152602001600015158152602001600081525060068481548110151561288257fe5b906000526020600020906008020160008201518160000190805190602001906128ac929190612b7c565b506020820151816001015560408201518160020190805190602001906128d3929190612b7c565b5060608201518160030160006101000a81548173ffffffffffffffffffffffffffffffffffffffff021916908373ffffffffffffffffffffffffffffffffffffffff1602179055506080820151816004015560a0820151816005015560c08201518160060160006101000a81548160ff02191690831515021790555060e08201518160060160016101000a81548160ff02191690831515021790555061010082015181600701559050505b8293505050509392505050565b600080600190505b600680549050811015612aab5760606006828154811015156129b157fe5b90600052602060002090600802016002018054600181600116156101000203166002900480601f016020809104026020016040519081016040528092919081815260200182805460018160011615610100020316600290048015612a565780601f10612a2b57610100808354040283529160200191612a56565b820191906000526020600020905b815481529060010190602001808311612a3957829003601f168201915b505050505090506000600683815481101515612a6e57fe5b906000526020600020906008020160010154148015612a8e575060008151145b15612a9d578192505050612ab1565b508080600101915050612993565b50600090505b90565b828054600181600116156101000203166002900490600052602060002090601f016020900481019282601f10612af557805160ff1916838001178555612b23565b82800160010185558215612b23579182015b82811115612b22578251825591602001919060010190612b07565b5b509050612b309190612bfc565b5090565b50805460018160011615610100020316600290046000825580601f10612b5a5750612b79565b601f016020900490600052602060002090810190612b789190612bfc565b5b50565b828054600181600116156101000203166002900490600052602060002090601f016020900481019282601f10612bbd57805160ff1916838001178555612beb565b82800160010185558215612beb579182015b82811115612bea578251825591602001919060010190612bcf565b5b509050612bf89190612bfc565b5090565b612c1e91905b80821115612c1a576000816000905550600101612c02565b5090565b9056fea165627a7a72305820c7ac499511cacc745cd509b0b69f256b23fe6df376f425ba700d259c77b65bef0029",
  "source": "pragma solidity ^0.5.0;\n\nimport \"./ownable.sol\";\n\ncontract Exchain is Ownable{\n    /*****************************************************************/\n    //GLOBALS\n    /*****************************************************************/\n\n    //Struct for DB\n    struct DB {\n            //payload\n            string data;\n\n            //id\n            uint uid;\n            string name;\n            address owner;\n\n            //timing\n            uint lastUpdated;\n            uint readyTime;\n\n            //sync mechanisms\n            bool lock;\n            bool rlock;\n            uint numReaders;\n        }\n    \n    // Mappings\n    mapping (address => uint) private ownerToDB;\n    mapping (address => uint) private ownerToDBCount;\n    mapping (uint    => uint) private uidToDB;\n\n    uint private size;                   //number of stored databases\n\n    //Note:Would be something much longer to prevent continuous writes Ex:12 hours\n    uint private cooldownTime = 10 seconds;  //protective write cooldown time              \n\n    //Array containing databases\n    DB[] private dbs;\n\n    // Constructor\n    constructor() public {\n        size = 0;\n        //make first slot be the Zeroth index\n        dbs.push(DB(\"EMPTY\", 0, \"ZERO INDEX\", address(0), 0, 0, true, true, 0));\n    }\n\n    /*****************************************************************/\n    //Sync\n    /*****************************************************************/\n    /*Inaccessible events*/\n    event DatabaseIsLocked(string name, address owner, address attemptedLocker);\n    event DatabaseIsUnlocked(string name, address owner, address attemptedUnlocker);\n    event DatabaseIsRLocked(string name, address owner, address attemptedLocker);\n    event DatabaseIsRUnlocked(string name, address owner, address attemptedUnlocker);\n\n    /// notice require ownership a database (not specfically the one you are calling)\n    modifier ownsDB() {\n        require(ownerToDBCount[msg.sender] == 1, \"Caller does not own a db\");\n        _;\n    }\n\n    /// notice require participation in Exchain (ownDB or head entity)\n    modifier participant() {\n        require(((ownerToDBCount[msg.sender] == 1) || (isOwner() == true)), \"Caller is not a part of Exchain\");\n        _;\n    }\n\n    /// notice acquire the main lock of a database\n    /// dev event will go off if the lock is already obtained\n    /// param {DB} storage _db - reference to database in dbs array\n    function _acquireDB(DB storage _db) private participant {\n        if(_db.lock != true){\n            _db.lock = true;\n        }\n        else{\n            emit DatabaseIsLocked(_db.name, _db.owner, msg.sender);\n            revert(\"Database is currently locked by another entity\");\n        }  \n    }\n\n    /// notice release the main lock of a database\n    /// dev event will go off if the lock was not locked, but was attempted to be unlocked (always an error state)\n    /// param {DB} storage _db - reference to database in dbs array\n    function _releaseDB(DB storage _db) private participant {\n        if(_db.lock == true){\n            _db.lock = false;\n        }\n        else{\n            emit DatabaseIsUnlocked(_db.name, _db.owner, msg.sender);\n            revert(\"Database was not locked and was attempted to be unlocked\");\n        }\n    }\n\n    /// notice acquire the read lock of a database\n    /// dev event will go off if the lock is already obtained\n    /// param {DB} storage _db - reference to database in dbs array\n    function _acquireDB_r(DB storage _db) private participant {\n        if(_db.rlock != true){\n            _db.rlock = true;\n        }\n        else{\n            emit DatabaseIsRLocked(_db.name, _db.owner, msg.sender);\n            revert(\"Database is currently read locked by another reader\");\n        }  \n        \n    }\n\n    /// notice release the read lock of a database\n    /// dev event will go off if the read lock was not locked, but was attempted to be unlocked (always an error state)\n    /// param {DB} storage _db - reference to database in dbs array\n    function _releaseDB_r(DB storage _db) private participant {\n        if(_db.rlock == true){\n            _db.rlock = false;\n        }\n        else{\n            emit DatabaseIsRUnlocked(_db.name, _db.owner, msg.sender);\n            revert(\"Database was not read locked and was attempted to be read unlocked\");\n        }\n    }\n\n    /*****************************************************************/\n    //Factory\n    /*****************************************************************/\n\n    /*Database added event*/\n    event NewDatabaseCreated(uint index, string name, uint uid, address owner);\n    event DatabaseDeleted(uint index, string name, uint uid, address owner);\n\n    /*Error in repacking a empty slot in DBS event*/\n    event ErrorFailureToPackEmptySlot(uint index, string name, address owner);\n\n    //Support\n    /*******************************************************************************************************/\n    \n    /// notice find first available slot in dbs array for a newly create database\n    /// dev support to _addToDBS\n    /// return returns- uint: index of available slot (zero if none across dbs length are avail)\n    function _findAvailSlot() private view returns(uint){\n        //index starts at 1\n        for(uint i = 1; i < dbs.length; i++){\n            //check to make sure the uid is 0 and string is empty\n            //(impossible for this to occur unless deletion has happened bc uid is the string hashed)\n            bytes memory emptyStringTest = bytes(dbs[i].name);\n            if(dbs[i].uid == 0 && emptyStringTest.length == 0){\n                return i;\n            }\n        }\n        return 0;\n    } \n\n    /// notice add a newly created database to the dbs array in an open slot of the existing length or append\n    /// dev support to _createDB\n    /// param {uint} uint _uid - generated unique ID for database\n    /// param {string} memory _name - provided name of database\n    /// param {address} _setOwner - address of who will own the database\n    /// return {uint}- index of available slot (zero if none across dbs length are avail)\n    function _addToDBS(uint _uid, string memory _name, address _setOwner) private returns(uint){\n        //Check if there are open slots\n        uint _index = 0;\n        if(size < (dbs.length - 1)){\n            //if there are find the first available slot that is available\n            _index = _findAvailSlot();\n            require(_index != 0);\n        }\n\n        //if is done so cooldown timing can be slightly more accurate, can restruct in future if wanting to save cond. checking\n        uint32 _timeNow = uint32(now);\n        uint32 _timeLtr = uint32(_timeNow + cooldownTime);\n        if(_index == 0){\n            //push returns length of array pushing to, -1 bc of zeroth index\n            _index = dbs.push(DB(\"EMPTY\", _uid, _name, _setOwner, _timeNow, _timeLtr, false, false, 0)) - 1;\n        }\n        else{\n            dbs[_index] = DB(\"EMPTY\", _uid, _name, _setOwner, _timeNow, _timeLtr, false, false, 0);\n        }\n\n        return _index;\n    }\n\n    /// notice create a database and add it to the dbs array\n    /// dev support createDB\n    /// param {uint} _uid - generated unique ID for database\n    /// param {string} memory _name - provided name of database\n    /// param {address} _setOwner - address of who will own the database\n    function _createDB(uint _uid, string memory _name, address _setOwner) private{\n        uint _index = _addToDBS(_uid, _name, _setOwner);\n\n        ownerToDB[_setOwner] = _index;      //map owner to this dbs index\n        ownerToDBCount[_setOwner] = 1;        //owner now owns 1 database\n        uidToDB[_uid] = _index;             //link uib as alias to index\n\n        size++;\n\n        emit NewDatabaseCreated(_index, _name, _uid, _setOwner);\n    }\n\n    /// notice generate unique id for database by hashing provided database name\n    /// dev provide _createDB w/ uid to support createDB\n    /// param {string} memory _dbName - name of database\n    /// return {uint} - 256-bit uid\n    function _generateUniqueID(string memory _dbName) private pure returns (uint) {\n        uint rand = uint(keccak256(abi.encodePacked(_dbName)));\n        return rand;\n    }\n\n    /// notice check if the name is already used as a database name. No duplicate names bc of hashing to make uid.\n    /// dev support createDB\n    /// param {string} memory _name - intended name of database\n    /// return {bool} - is the name already in use\n    function _isNameInUse(string memory _name) private view returns (bool){\n        uint _i = 0;\n        for(_i = 1; _i < dbs.length; _i++){\n            if( keccak256(abi.encodePacked((dbs[_i].name))) == keccak256(abi.encodePacked((_name))) ){\n                return true;\n            }\n        }\n        return false;\n    }\n\n    //Main Interface\n    /*******************************************************************************************************/\n\n    /// notice create a slot for a database\n    /// dev only head entity that deploys smart contract can execute. Note: head entity may create their own database.\n    /// param {string} memory _name - intended name of database\n    /// param {address} _setOwner- intended owner of the database\n    /// return {uint}- uid of database\n    function createDB(string memory _name, address _setOwner) public onlyOwner returns (uint){\n        require(ownerToDBCount[_setOwner] == 0, \"Address cannot own more than one database\");\n        require(_setOwner != msg.sender, \"The head entity may not create its own a database\");\n        require(_setOwner != address(0), \"Address 0 cannot own a database\");\n        require(_isNameInUse(_name) == false, \"No duplicate names across databases\");\n\n        uint _uid = _generateUniqueID(_name);\n        _createDB(_uid, _name, _setOwner);\n        \n        return _uid;\n    }\n\n    /// notice delete an existing database\n    /// dev only head entity that deploys smart contract can execute. Note: head entity may delete their own database.\n    /// param {uint} _uid - unique 265-bit ID of database to be deleted\n    function deleteDB(uint _uid) public onlyOwner {\n        uint _index = uidToDB[_uid];\n\n        DB storage _db = dbs[_index];\n        require(_db.owner != msg.sender, \"The head entity may not delete its own a database\");\n\n        //it is possible that the head entity can be denied from deleting by a current writer or current readers\n        _acquireDB(_db);\n        ownerToDBCount[_db.owner] = 0;\n        ownerToDB[_db.owner] = 0;\n        uidToDB[_db.uid] = 0;\n        size--;\n        emit DatabaseDeleted(_index, _db.name, _db.uid, _db.owner);\n        delete dbs[_index];\n    }\n\n    /*****************************************************************/\n    //Read/Write\n    /*****************************************************************/\n\n    /*State change events*/\n    event DatabaseRead(string name, address owner, address reader, string data);\n    event DatabaseUpdated(uint index, string name, uint nextTimeToUpdate, string newData);\n\n    /*Cooldown events*/\n    event DatabaseInCooldown(uint index, string name, uint nextTimeToUpdate);\n\n    //Support\n    /*******************************************************************************************************/\n\n    /// notice check if cooldown is complete\n    /// param {DB} storage _db - reference to database in dbs array\n    /// return {bool} - has cooldown expired\n    function _isReady(DB storage _db) private view returns (bool){\n        return (_db.readyTime <= now);\n    }\n\n    /// notice prevent continuous writes by not allowing writing during a cooldown time\n    /// param {DB} storage _db- reference to database in dbs array\n    function _triggerCooldown(DB storage _db) private ownsDB {\n       _db.readyTime = uint32(_db.lastUpdated + cooldownTime);\n    }\n\n    //Main Interface\n    /*******************************************************************************************************/\n    //Reader/Writers Problem if execution occurs concurrently on shards\n\n    /// notice modify an owned database\n    /// dev uses sync\n    /// param {string} memory _data - string of data attempting to add\n    function writeDB(string memory _data) public ownsDB{\n       uint _index = ownerToDB[msg.sender];     //get index of database the you own\n\n       DB storage _db = dbs[_index];\n\n       bool _ready = _isReady(_db);\n       if(_ready == false){\n           emit DatabaseInCooldown(_index,_db.name,_db.readyTime);\n       }\n\n       require(_ready == true);\n       _acquireDB(_db);\n\n       _db.data = _data;\n       _db.lastUpdated = now;       \n       \n       _triggerCooldown(_db);\n       _releaseDB(_db);\n\n       emit DatabaseUpdated(_index, _db.name, _db.readyTime, _db.data);\n    }\n\n    /// notice read an existing database contents\n    /// dev uses sync\n    /// param {uint} _uid - unique 265-bit ID you want to read\n    /// return {string} memory - Database's contents\n    function readDB(uint _uid) public participant returns (string memory) {\n        uint _index = uidToDB[_uid];\n\n        DB storage _db = dbs[_index];\n\n        _acquireDB_r(_db);\n        if(_db.numReaders == 0){\n            _acquireDB(_db);\n        }\n        _db.numReaders++;\n        _releaseDB_r(_db);\n\n        string memory data = _db.data;\n\n        _acquireDB_r(_db);\n        _db.numReaders--;\n        if(_db.numReaders == 0){\n            _releaseDB(_db);\n        }\n        _releaseDB_r(_db);\n\n        emit DatabaseRead(_db.name, _db.owner, msg.sender, data);\n\n        return (data);\n    }\n}\n\n//designed and coded by Steven Rosenthal",
  "sourcePath": "/home/steven/Blockchain/ExChain/src/contracts/Exchain.sol",
  "compiler": {
    "name": "solc",
    "version": "0.5.0+commit.1d4f565a.Emscripten.clang"
  },
  "schemaVersion": "3.4.4",
  "updatedAt": "2022-04-25T21:12:24.825Z",
  "networkType": "ethereum",
  "devdoc": {
    "methods": {
      "isOwner()": {
        "return": "true if `msg.sender` is the owner of the contract."
      },
      "owner()": {
        "return": "the address of the owner."
      },
      "renounceOwnership()": {
        "details": "Allows the current owner to relinquish control of the contract."
      },
      "transferOwnership(address)": {
        "details": "Allows the current owner to transfer control of the contract to a newOwner.",
        "params": {
          "newOwner": "The address to transfer ownership to."
        }
      }
    }
  },
  "userdoc": {
    "methods": {
      "createDB(string,address)": {
        "notice": "notice create a slot for a database dev only head entity that deploys smart contract can execute. Note: head entity may create their own database. param {string} memory _name - intended name of database param {address} _setOwner- intended owner of the database return {uint}- uid of database"
      },
      "deleteDB(uint256)": {
        "notice": "notice delete an existing database dev only head entity that deploys smart contract can execute. Note: head entity may delete their own database. param {uint} _uid - unique 265-bit ID of database to be deleted"
      },
      "readDB(uint256)": {
        "notice": "notice read an existing database contents dev uses sync param {uint} _uid - unique 265-bit ID you want to read return {string} memory - Database's contents"
      },
      "renounceOwnership()": {
        "notice": "Renouncing to ownership will leave the contract without an owner. It will not be possible to call the functions with the `onlyOwner` modifier anymore."
      },
      "writeDB(string)": {
        "notice": "notice modify an owned database dev uses sync param {string} memory _data - string of data attempting to add"
      }
    }
  }
}